:1000000051C00000C2C100006BC0000069C0000008
:1000100067C0000065C0000063C0000061C0000050
:100020005FC000005DC000005BC0000059C0000060
:100030006FC0000055C0000053C0000051C0000058
:100040007FC400004DC000004BC0000049C000004C
:1000500047C0000058C1000043C0000041C000007C
:100060003FC000003DC000003BC0000039C00000A0
:1000700037C0000035C0000033C0000031C00000B0
:100080002FC000002DC000002BC000000702EF01B0
:10009000F101F301F501F701F901FB01FD01FF0198
:1000A0000102030211241FBECFEFD0E1DEBFCDBF9E
:1000B00012E0A0E0B1E0E0E0F8E100E00BBF02C038
:1000C00007900D92A63BB107D9F722E0A6EBB2E06C
:1000D00001C01D92A23DB207E1F755D30C94FE0B6F
:1000E0008FCF8AB38FEF8ABB1BBA87B38F6087BB72
:1000F00018BA8EB588608EBD84E690E09BBD8ABD3F
:100100008EB585608EBD87B7806187BF789408956E
:100110001F920F920FB60F9211240BB60F922F93CE
:100120003F934F935F936F937F938F939F93AF937F
:10013000BF93EF93FF93F8948091BA02882309F458
:1001400058C02091B8023091B902ADECBCEC0E94CD
:1001500006099695879596958795969587958093A8
:10016000BF024091B8025091B9029A010E9406095B
:100170009695879596958795969587959C01220FDC
:10018000331F880F991F880F991F880F991F820F9F
:10019000931F481B590B4093BE022091B602309129
:1001A000B7020E940609969587959695879596952C
:1001B00087958093BD024091B6025091B7029A0193
:1001C0000E940609969587959695879596958795A9
:1001D0009C01220F331F880F991F880F991F880FCA
:1001E000991F820F931F481B590B4093BC0210921A
:1001F000BA0288B3807F88BB8091BB0281110CC09A
:10020000C09AE091BF02F0E0E45FFE4F80818BBBBB
:1002100081E08093BB022EC08091BB02813061F4EB
:10022000C19AE091BE02F0E0E45FFE4F80818BBB9B
:1002300082E08093BB021EC08091BB02823061F4D9
:10024000C29AE091BD02F0E0E45FFE4F80818BBB7B
:1002500083E08093BB020EC08091BB02833051F4D7
:10026000C39AE091BC02F0E0E45FFE4F80818BBB5B
:100270001092BB027894FF91EF91BF91AF919F9143
:100280008F917F916F915F914F913F912F910F903F
:100290000BBE0F900FBE0F901F901895F89490937F
:1002A000B9028093B8027093B7026093B60281E0FE
:1002B0008093BA0278940895BE9ABF9A0895F894EC
:1002C000893379F4809100018230D9F495D166E1C7
:1002D00071E080E8FDD0C69AC79A81E08093000162
:1002E00010C0803371F480910001813051F484D1C9
:1002F0006FE171E080E8ECD0C698C79882E0809307
:100300000001789408951F920F920FB60F92112456
:100310008F939F93F89484B190E09093CE02809352
:10032000CD0285B190E09093D1028093D00281E01C
:100330008093CF0278949F918F910F900FBE0F9072
:100340001F9018959EE996B9806487B978941092A9
:10035000CF02369A8091CF028823E1F3F89416B841
:1003600078940895E1E6F0E080818C7F80830895A1
:100370008091D0029091D1022091CD023091CE0295
:10038000982F8827822B932B08951F920F920FB6D8
:100390000F9211248F9381B182958F708093010108
:1003A0008F910F900FBE0F901F9018958898EAE6D6
:1003B000F0E080818260808389B7816089BF88B7DF
:1003C000816088BF82B18F7082B97894089590E07F
:1003D0008C309105D0F4FC01EA5BFF4F0EC782E33D
:1003E000089583E3089584E3089585E3089586E3FB
:1003F000089587E3089588E3089589E308958AE2DC
:10040000089580E3089583E208958FEF089581E3CE
:100410000895809101018F3F21F0D9DF9FEF9093E4
:10042000010108951A981B98E5E6F0E0908190612B
:100430009083A2E6B0E09C919F709C939C91282FA2
:10044000207F922B9C9390819F7E908390819061DE
:1004500090839C919F709C932C9130E1839FC0016D
:100460001124822B8C9380818F7E80838FE99FE083
:100470000197F1F700C0000008951A9A1B98E5E66D
:10048000F0E0908190619083A2E6B0E09C919F7033
:100490009C939C91282F207F922B9C9390819F7EF0
:1004A00090839081906190839C919F709C932C91FC
:1004B00030E1839FC0011124822B8C9380818F7E39
:1004C00080838FE99FE00197F1F700C00000089555
:1004D0000F931F93CF938B01A5DFC0E0F801EC0FC2
:1004E000F11D8081CADFCF5FF801EC0FF11D808123
:1004F0008111F4CF80E18C1BC82F803128F480E279
:10050000BCDFCF5FC031D9F7CF911F910F91089514
:100510000F931F93CF938C01C0E0F801EC0FF11DF6
:100520008081ABDFCF5FF801EC0FF11D808181117D
:10053000F4CF80E18C1BC82F803128F480E29DDF4E
:10054000CF5FC031D9F7CF911F910F91089582B13C
:100550008C6082B9E1E6F0E08081806F8083E4E620
:10056000F0E0808180618083E5E6F0E080818F7E2D
:1005700080832FEF81EE94E0215080409040E1F79E
:1005800000C0000088E24EDF2FEF81EE94E02150A2
:1005900080409040E1F700C0000088E243DF2FEF89
:1005A00081EE94E0215080409040E1F700C00000CF
:1005B0008CE038DF2FEF81EE94E0215080409040B6
:1005C000E1F700C0000081E02DDF2FEF81EE94E025
:1005D000215080409040E1F700C0000086E022DF1B
:1005E0002FEF81EE94E0215080409040E1F700C071
:1005F000000082E017CF089581E014DF2FEF81EE35
:1006000094E0215080409040E1F700C00000089540
:1006100009CF0895603108F06FE0803829F0803C00
:1006200011F4605C01C060E0862F8068FBCE089505
:10063000EF92FF920F931F93CF93DF93CDB7DEB767
:1006400061970FB6F894DEBF0FBECDBFF82EE62E31
:100650005F934F9389E291E09F938F931F9281E183
:100660008F938E010F5F1F4F1F930F93DED56E2D5B
:100670008F2DD0DFC8014CDF0FB6F894DEBF0FBE60
:10068000CDBF61960FB6F894DEBF0FBECDBFDF9130
:10069000CF911F910F91FF90EF900895A09AA19A8A
:1006A000A29AA79AAF9A0895813339F4A5DF6CE234
:1006B00071E080E80DDFA89A0895823339F49CDF59
:1006C00066E371E080E804DFA8980895853339F483
:1006D00093DF61E471E080E8FBDEA99A0895863338
:1006E00031F48ADF61E571E080E8F2DEA9980895CF
:1006F0002091020130910301821793071CF089E3D6
:10070000DECD089580E3DBCD089520910401309182
:1007100005018217930714F0AF980895AF9A0895D2
:100720000F931F93CF93DF9380E05BD38C0181E025
:100730002ED346D46D3D25E07207B8F44CED55E05C
:10074000461B570B9A01A9E6BFE260D5481B590B1F
:1007500056954795EC01C40FD51FD295C295CF7021
:10076000CD27DF70CD27269602C0C0E0D0E0B801CB
:10077000CE0194DDCE01BCDFC801C7DFDF91CF9190
:100780001F910F9108958ADF96D0E1DE0FDEEADD3A
:1007900093DDA7DC31DF61E671E080E899DE61E797
:1007A00071E080EC95DE2FEF87EA91E621508040E2
:1007B0009040E1F700C000001BD12BDEEC018F3F21
:1007C000D1F080910A0190910B01029719F4CE01AA
:1007D00099271BD180910A0190910B01019719F47F
:1007E000CE01992713D080910A0190910B010397B4
:1007F00011F48C2FBFD194DF8FEF91EE24E0815064
:1008000090402040E1F700C00000D7CF8F3F09F4AF
:1008100051C08A32E1F4F0DE6FE771E080E858DE23
:100820002FEF87EA91E6215080409040E1F700C029
:100830000000E2DE6EE871E080E84ADE80ECE8DE8F
:1008400082E090E090930B0180930A010895833237
:10085000A1F46EE971E080E83BDE2FEF83ED90E3D9
:10086000215080409040E1F700C0000083E090E01C
:1008700090930B0180930A0108959FEC980F92309A
:1008800010F412CF08959DEC980F923010F422C00E
:1008900008959BEC980F923010F406CF089599ECD0
:1008A000980F923010F431C00895893311F08033DD
:1008B00009F405CD089512BA80EF81BB86E182BFAD
:1008C00086B7816086BF87B7816087BF87E083BFB7
:1008D00078940895833361F48FDE69EA71E080E8EB
:1008E000F7DD81E08093C00282E08093C302089527
:1008F000843351F481DE68EB71E080E8E9DD81E06A
:100900008093C0028093C3020895873361F474DE3C
:1009100067EC71E080E8DCDD84E68093C00282E071
:100920008093C3020895883351F466DE61ED71E06F
:1009300080E8CEDD1092C00281E08093C30208956A
:100940001F920F920FB60F9211240BB60F928F9336
:100950009F93EF93FF93F89486E182BF8091C0024A
:100960008823D1F18091C1029091C2028F35910507
:1009700050F48091C1029091C20201969093C202FC
:100980008093C10209C01092C2021092C1028091EC
:10099000C00281508093C0028091C302823041F432
:1009A0008091C1029091C20287708093C40208C0F6
:1009B0008091C1029091C202809587708093C40299
:1009C00082B38F7082BBE091C40292B3F0E0E45234
:1009D000FE4F8081892B82BB7894FF91EF919F918C
:1009E0008F910F900BBE0F900FBE0F901F90189518
:1009F0001092C8021092C7021092CA021092C90245
:100A00001092C6021092C5020895CF938F3F09F449
:100A1000AFC0C82F8A32A1F46AEA72E080E858DDDC
:100A20002FEF87EA91E6215080409040E1F700C027
:100A3000000081E090E090930B0180930A0198C040
:100A4000833209F06BC08091C70217DD2FEF89E672
:100A500098E1215080409040E1F700C00000809173
:100A6000C5029091C602049729F5209108013091A2
:100A700009018091C7029091C80228173907D1F463
:100A8000BBDD64EE71E080E823DD2FEF83ED90E3C2
:100A9000215080409040E1F700C00000ADDD65EFDF
:100AA00071E080E815DD83E090E090930B01809386
:100AB0000A015EC080910601909107010196909312
:100AC00007018093060194DF809106019091070150
:100AD000049794F463E072E080E8FADC2FEF83ED92
:100AE00090E3215080409040E1F700C000006EE0AC
:100AF00072E080E8EDDC3CC0109207011092060124
:100B000069E172E080E8E4DC2FEF83ED90E32150AF
:100B100080409040E1F700C000002AC0AEDC409168
:100B2000C5025091C6024430510514F58C2F90E057
:100B3000C0979093CA028093C9022091C702309156
:100B4000C802B901660F771F220F331F220F331F10
:100B5000220F331F260F371F820F931F9093C80257
:100B60008093C7024F5F5F4F5093C6024093C50208
:100B7000CF9108958332F9F48091CB028111F5C0B1
:100B80003BDD65E272E080E8A3DC2FEF87EA91E6C7
:100B9000215080409040E1F700C000002DDD66E369
:100BA00072E080E895DC64E472E080EC91DC81E046
:100BB0008093CB020895813349F41EDD63E572E032
:100BC00080E886DC82E08093CC020895823349F489
:100BD00013DD6EE572E080E87BDC81E08093CC027F
:100BE0000895853309F05FC08091CC02823061F5B1
:100BF00003DD6AE672E080E86BDC4091020150910F
:100C0000030161E080EC14DD2FEF83ED90E32150D0
:100C100080409040E1F700C00000409102015091F7
:100C200003014F5F5F4F509303014093020161E066
:100C300080ECFEDC2FEF83ED90E32150804090406C
:100C4000E1F700C000000895813009F09FC0D4DCB6
:100C500069E772E080E83CDC4091040150910501B5
:100C600061E080ECE5DC2FEF83ED90E321508040E4
:100C70009040E1F700C0000040910401509105014F
:100C80004F5F5F4F509305014093040161E080EC9A
:100C9000CFDC2FEF83ED90E3215080409040E1F7CF
:100CA00000C000000895883309F070C08091CC0224
:100CB000823061F5A1DC69E872E080E809DC4091EE
:100CC00002015091030161E080ECB2DC2FEF83ED73
:100CD00090E3215080409040E1F700C00000409137
:100CE0000201509103014150510950930301409377
:100CF000020161E080EC9CDC2FEF83ED90E321505A
:100D000080409040E1F700C000000895813009F074
:100D10003DC072DC68E972E080E8DADB40910401F2
:100D20005091050161E080EC83DC2FEF83ED90E3CF
:100D3000215080409040E1F700C000004091040144
:100D40005091050141505109509305014093040110
:100D500061E080EC6DDC2FEF83ED90E3215080406B
:100D60009040E1F700C0000008958091CB028130EF
:100D700069F442DC68EA72E080E8AADB81E090E096
:100D800090930B0180930A011092CB020895CF92A9
:100D9000DF92EF92FF92D6DAEBDABC0180E090E0CE
:100DA0003BD120E030EC4FE754E49DD020E030E030
:100DB00040EA50E4BFD16B017C019B01AC0160E0D3
:100DC00070E080EA90E42AD0A70196018CD020E060
:100DD00030E044EB53E4AED1FF90EF90DF90CF9042
:100DE0000895B0DAC5DABC0180E090E015D120E0CA
:100DF00030E040E854E49ED120E030E04AE254E4A0
:100E000072D020E030EC4FE754E46DD020E030E0C9
:100E100048EC52E48FD1CFD0CB0108955058BB2776
:100E2000AA270ED04DC13ED130F043D120F031F48D
:100E30009F3F11F41EF433C10EF4E095E7FB29C186
:100E4000E92F4FD180F3BA1762077307840795071C
:100E500018F071F49EF567C10EF4E0950B2EBA2FD1
:100E6000A02D0B01B90190010C01CA01A0011124B0
:100E7000FF27591B99F0593F50F4503E68F11A165C
:100E8000F040A22F232F342F4427585FF3CF4695ED
:100E900037952795A795F0405395C9F77EF41F160F
:100EA000BA0B620B730B840BBAF09150A1F0FF0FD9
:100EB000BB1F661F771F881FC2F70EC0BA0F621FC5
:100EC000731F841F48F4879577956795B795F795B5
:100ED0009E3F08F0B3CF9395880F08F09927EE0F47
:100EE0009795879508950CD0EBC0E3D040F0DAD009
:100EF00030F021F45F3F19F0CCC0511115C1CFC0C3
:100F0000F0D098F39923C9F35523B1F3951B550BF2
:100F1000BB27AA2762177307840738F09F5F5F4FCC
:100F2000220F331F441FAA1FA9F333D00E2E3AF00D
:100F3000E0E830D091505040E695001CCAF729D027
:100F4000FE2F27D0660F771F881FBB1F2617370776
:100F50004807AB07B0E809F0BB0B802DBF01FF27A6
:100F600093585F4F2AF09E3F510568F092C0DCC055
:100F70005F3FECF3983EDCF3869577956795B795E0
:100F8000F7959F5FC9F7880F911D9695879597F9FB
:100F90000895E1E0660F771F881FBB1F6217730774
:100FA0008407BA0720F0621B730B840BBA0BEE1F89
:100FB00088F7E095089504D06894B111B5C00895FC
:100FC00098D088F09F5790F0B92F9927B751A0F08B
:100FD000D1F0660F771F881F991F1AF0BA95C9F7CD
:100FE00012C0B13081F09FD0B1E008959CC0672F4E
:100FF000782F8827B85F39F0B93FCCF3869577957D
:101000006795B395D9F73EF4909580957095619565
:101010007F4F8F4F9F4F0895E89409C097FB3EF490
:1010200090958095709561957F4F8F4F9F4F992335
:10103000A9F0F92F96E9BB279395F69587957795B3
:101040006795B795F111F8CFFAF4BB0F11F460FF73
:101050001BC06F5F7F4F8F4F9F4F16C0882311F0CB
:1010600096E911C0772321F09EE8872F762F05C0DF
:10107000662371F096E8862F70E060E02AF09A957A
:10108000660F771F881FDAF7880F9695879597F96F
:10109000089597F99F6780E870E060E008959FEFFA
:1010A00080EC089500240A941616170618060906FF
:1010B000089500240A9412161306140605060895CE
:1010C000092E0394000C11F4882352F0BB0F40F456
:1010D000BF2B11F460FF04C06F5F7F4F8F4F9F4F96
:1010E000089557FD9058440F551F59F05F3F71F018
:1010F0004795880F97FB991F61F09F3F79F087957F
:101100000895121613061406551FF2CF4695F1DF07
:1011100008C0161617061806991FF1CF8695710597
:10112000610508940895E894BB2766277727CB01CB
:1011300097F908950BD0C4CFB5DF28F0BADF18F0C7
:10114000952309F0A6CFABCF1124EECFCADFA0F3D1
:10115000959FD1F3950F50E0551F629FF001729F4C
:10116000BB27F00DB11D639FAA27F00DB11DAA1F6B
:10117000649F6627B00DA11D661F829F2227B00DB8
:10118000A11D621F739FB00DA11D621F839FA00D43
:10119000611D221F749F3327A00D611D231F849F93
:1011A000600D211D822F762F6A2F11249F575040EA
:1011B0008AF0E1F088234AF0EE0FFF1FBB1F661F85
:1011C000771F881F91505040A9F79E3F510570F03E
:1011D00060CFAACF5F3FECF3983EDCF3869577951E
:1011E0006795B795F795E7959F5FC1F7FE2B880F39
:1011F000911D9695879597F90895EE0FFF1F00248E
:10120000001C0BBE0790F691E02D0994A29FB0013F
:10121000B39FC001A39F700D811D1124911DB29F2A
:10122000700D811D1124911D08950F931F93CF936D
:10123000DF93CDB7DEB72E970FB6F894DEBF0FBEA3
:10124000CDBF0D891E898F89988D26E02C831A8346
:10125000098397FF02C080E090E801979E838D8309
:10126000AE01455E5F4F698D7A8DCE01019619D032
:101270004D815E8157FD0AC02F8138854217530783
:101280000CF49A01F801E20FF31F10822E960FB6AC
:10129000F894DEBF0FBECDBFDF91CF911F910F91AC
:1012A00008952F923F924F925F926F927F928F920A
:1012B0009F92AF92BF92CF92DF92EF92FF920F93E5
:1012C0001F93CF93DF93CDB7DEB72B970FB6F8946C
:1012D000DEBF0FBECDBF6C017B018A01FC0117820E
:1012E0001682838181FFBFC1CE0101963C01F601C8
:1012F0009381F70193FD859193FF81917F0188236D
:1013000009F4ADC1853239F493FD859193FF819144
:101310007F01853221F4B60190E0D6D1E8CF912C3F
:10132000212C312CFFE1F315D8F08B3279F038F411
:10133000803279F08332A1F4232D20611DC08D32DB
:1013400061F0803369F4232D216016C0832D826003
:10135000382EE32DE4603E2E2AC0F32DF8601DC028
:1013600037FC2DC020ED280F2A3040F08E32B9F422
:1013700036FC75C1232D2064322E19C036FE06C0FE
:101380008AE0989E200D1124922E11C0EAE02E9E34
:10139000200D1124222EF32DF0623F2E08C08C3632
:1013A00021F4832D8068382E02C0883641F4F7017D
:1013B00093FD859193FF81917F018111B3CF982F88
:1013C0009F7D9554933028F40C5F1F4F9FE39983C2
:1013D0000DC0833631F0833771F0833509F055C085
:1013E00020C0F801808189830E5F1F4F8824839479
:1013F000912C530112C02801F2E04F0E511CF8014C
:10140000A080B18036FE03C0692D70E002C06FEF8E
:101410007FEFC5014ED14C018201F32DFF773F2EA6
:1014200015C0280122E0420E511CF801A080B180B5
:1014300036FE03C0692D70E002C06FEF7FEFC5017B
:101440002DD14C01F32DF0683F2E820133FC19C0E1
:10145000822D90E088169906A0F4B60180E290E013
:1014600033D12A94F5CFF50137FC859137FE819170
:101470005F01B60190E028D121102A9421E0821A60
:1014800091088114910479F7E1C0843611F089360E
:1014900039F5F80137FE07C060817181828193813F
:1014A0000C5F1F4F08C060817181072E000C880BF4
:1014B000990B0E5F1F4FF32DFF763F2E97FF09C04C
:1014C00090958095709561957F4F8F4F9F4FF068F5
:1014D0003F2E2AE030E0A30133D1882E861844C085
:1014E000853731F4232D2F7EB22E2AE030E025C03F
:1014F000932D997FB92E8F36C1F018F4883579F085
:10150000AEC0803719F0883721F0A9C0E92FE0611B
:10151000BE2EB4FE0DC0FB2DF460BF2E09C034FEFC
:101520000AC0292F2660B22E06C028E030E005C090
:1015300020E130E002C020E132E0F801B7FE07C050
:1015400060817181828193810C5F1F4F06C0608131
:10155000718180E090E00E5F1F4FA301F1D0882ED3
:101560008618FB2DFF773F2E36FE0DC0232D2E7FD4
:10157000A22E891458F434FE0BC032FC09C0832D0E
:101580008E7EA82E05C0B82CA32C03C0B82C01C099
:10159000B92CA4FE0FC0FE01E80DF11D808180333F
:1015A00021F49A2D997EA92E09C0A2FE06C0B394FB
:1015B000B39404C08A2D867809F0B394A3FC10C0BC
:1015C000A0FE06C0B21480F4280C922C9B180DC00B
:1015D000B21458F4B60180E290E076D0B394F8CF1C
:1015E000B21418F42B1802C0982C212CA4FE0FC0A2
:1015F000B60180E390E068D0A2FE16C0A1FC03C053
:1016000088E790E002C088E590E0B6010CC08A2D22
:10161000867851F0A1FE02C08BE201C080E2A7FCF7
:101620008DE2B60190E050D0891430F4B60180E329
:1016300090E04AD09A94F8CF8A94F301E80DF11D16
:101640008081B60190E040D08110F6CF222009F4CD
:101650004ECEB60180E290E037D02A94F7CFF60163
:101660008681978102C08FEF9FEF2B960FB6F8947B
:10167000DEBF0FBECDBFDF91CF911F910F91FF90C5
:10168000EF90DF90CF90BF90AF909F908F907F9022
:101690006F905F904F903F902F900895FC010590C0
:1016A000615070400110D8F7809590958E0F9F1F64
:1016B0000895FC016150704001900110D8F78095A9
:1016C00090958E0F9F1F08950F931F93CF93DF93D5
:1016D000FB01238121FD03C08FEF9FEF2CC022FF70
:1016E00016C046815781248135814217530744F43F
:1016F000A081B1819D012F5F3F4F318320838C9367
:10170000268137812F5F3F4F3783268314C08B019B
:10171000EC01FB010084F185E02D0995892BE1F6B0
:10172000D80116968D919C911797019617969C93C8
:101730008E931697CE01DF91CF911F910F9108954F
:10174000FA01AA27283051F1203181F1E8946F93F2
:101750006E7F6E5F7F4F8F4F9F4FAF4FB1E03ED098
:10176000B4E03CD0670F781F891F9A1FA11D680F36
:10177000791F8A1F911DA11D6A0F711D811D911D69
:10178000A11D20D009F468943F912AE0269F1124DE
:101790003019305D3193DEF6CF010895462F477042
:1017A000405D4193B3E00FD0C9F7F6CF462F4F709D
:1017B000405D4A3318F0495D31FD4052419302D0FB
:1017C000A9F7EACFB4E0A6959795879577956795A1
:1017D000BA95C9F700976105710508959B01AC01A1
:1017E0000A2E06945795479537952795BA95C9F7C8
:1017F000620F731F841F951FA01D0895F894FFCFDB
:1018000002FF19003C000100D20401003F065B4FBB
:10181000666D7D077F6F4143206973204F4E004105
:1018200043206973204F4646002564004C45442000
:101830006973204F4E004C4544206973204F464643
:10184000004375727461696E73206F70656E6564B4
:10185000004375727461696E7320636C6F736564A5
:10186000002057656C636F6D6520546F204F757253
:1018700000202020536D61727420486F6D65002038
:1018800050617373776F7264204D6F646500456EAD
:101890007465722050617373776F72643A00526599
:1018A000736574204D6F646500444F4F5220697317
:1018B000204F70656E656400444F4F52206973205D
:1018C000436C6F7365640046414E206973204F4E30
:1018D0000046414E206973204F464600103020607C
:1018E00040C08090436F727265637420506173735F
:1018F000776F7264002020205245534554204D6F6D
:1019000064650057726F6E67207061737300747244
:101910007920616761696E210057616974203330F5
:10192000205345430053656C65637420616E206FDE
:101930007074696F6E00312E205265736574205487
:10194000656D7000322E205265736574204C696796
:101950006874005365742054656D70203A005365B7
:1019600074204C69676874203A00696E6372656D13
:10197000656E742074656D7000696E6372656D6567
:101980006E74206C696768740064656372656D6568
:101990006E742074656D700064656372656D656E4C
:1019A00074206C696768740020204D616E75616CED
:0619B000204D6F6465008C
:00000001FF
